{
  "transactions": [
    {
      "hash": "0x5be8dfad76e88a7d49dec2ea4a9b59a5970d7fbcf14c9f264d9a6e0dcc6395ec",
      "transactionType": "CALL",
      "contractName": null,
      "contractAddress": "0x0e5cf4661bc46da84efb649ce2f5c0ee3c47c3b2",
      "function": "approve(address,uint256)",
      "arguments": [
        "0x99Fe001eb3A3cc6323D386AC7C7A74CDF2633349",
        "1000000000000000000000000"
      ],
      "transaction": {
        "from": "0x3eede3fe85f32d013e368d02db07c0662390eadd",
        "to": "0x0e5cf4661bc46da84efb649ce2f5c0ee3c47c3b2",
        "gas": "0xfd33",
        "value": "0x0",
        "input": "0x095ea7b300000000000000000000000099fe001eb3a3cc6323d386ac7c7a74cdf263334900000000000000000000000000000000000000000000d3c21bcecceda1000000",
        "nonce": "0xd",
        "chainId": "0x106a"
      },
      "additionalContracts": [],
      "isFixedGasLimit": false
    },
    {
      "hash": "0xe7a77a85c664a03fc5d6d6fc93030aa6659e9a2528b7e85fdec5a04409f574d7",
      "transactionType": "CALL",
      "contractName": null,
      "contractAddress": "0x0e5cf4661bc46da84efb649ce2f5c0ee3c47c3b2",
      "function": "approve(address,uint256)",
      "arguments": [
        "0x99Fe001eb3A3cc6323D386AC7C7A74CDF2633349",
        "1000000000000000000000000"
      ],
      "transaction": {
        "from": "0x3eede3fe85f32d013e368d02db07c0662390eadd",
        "to": "0x0e5cf4661bc46da84efb649ce2f5c0ee3c47c3b2",
        "gas": "0x91d4",
        "value": "0x0",
        "input": "0x095ea7b300000000000000000000000099fe001eb3a3cc6323d386ac7c7a74cdf263334900000000000000000000000000000000000000000000d3c21bcecceda1000000",
        "nonce": "0xe",
        "chainId": "0x106a"
      },
      "additionalContracts": [],
      "isFixedGasLimit": false
    }
  ],
  "receipts": [
    {
      "status": "0x1",
      "cumulativeGasUsed": "0x16b84",
      "logs": [
        {
          "address": "0x0e5cf4661bc46da84efb649ce2f5c0ee3c47c3b2",
          "topics": [
            "0x8c5be1e5ebec7d5bd14f71427d1e84f3dd0314c0f7b2291e5b200ac8c7c3b925",
            "0x0000000000000000000000003eede3fe85f32d013e368d02db07c0662390eadd",
            "0x00000000000000000000000099fe001eb3a3cc6323d386ac7c7a74cdf2633349"
          ],
          "data": "0x00000000000000000000000000000000000000000000d3c21bcecceda1000000",
          "blockHash": "0xeacbf1baea89d6783dc6563c89e45ebdc16828a38ad08dc84f81ad503cb2aba1",
          "blockNumber": "0x171d671",
          "transactionHash": "0x5be8dfad76e88a7d49dec2ea4a9b59a5970d7fbcf14c9f264d9a6e0dcc6395ec",
          "transactionIndex": "0x1",
          "logIndex": "0x0",
          "removed": false
        }
      ],
      "logsBloom": "0x00000000000000000000000000000000000000000000000000001000000000000000000000000000000000000000000000000000000000000000000000200000000000000000000000000000000000000000000000000000000000000000000000000000000000200000000000000000000000100000000000000000000000000000000000000000000000000000000000000000000000000000000200000000120000000000000000000000000000000020000000000000000001000000000000000000000000000000000000000000000000020000000000000000004000000010000000000000000000000000000000000000000000000000000000000000",
      "type": "0x2",
      "transactionHash": "0x5be8dfad76e88a7d49dec2ea4a9b59a5970d7fbcf14c9f264d9a6e0dcc6395ec",
      "transactionIndex": "0x1",
      "blockHash": "0xeacbf1baea89d6783dc6563c89e45ebdc16828a38ad08dc84f81ad503cb2aba1",
      "blockNumber": "0x171d671",
      "gasUsed": "0xb750",
      "effectiveGasPrice": "0xfe",
      "from": "0x3eede3fe85f32d013e368d02db07c0662390eadd",
      "to": "0x0e5cf4661bc46da84efb649ce2f5c0ee3c47c3b2",
      "contractAddress": null,
      "l1BaseFeeScalar": "0x2af8",
      "l1BlobBaseFee": "0x2",
      "l1BlobBaseFeeScalar": "0x109618",
      "l1Fee": "0xc0ba87",
      "l1GasPrice": "0xaf347",
      "l1GasUsed": "0x640"
    },
    {
      "status": "0x1",
      "cumulativeGasUsed": "0x1d518",
      "logs": [
        {
          "address": "0x0e5cf4661bc46da84efb649ce2f5c0ee3c47c3b2",
          "topics": [
            "0x8c5be1e5ebec7d5bd14f71427d1e84f3dd0314c0f7b2291e5b200ac8c7c3b925",
            "0x0000000000000000000000003eede3fe85f32d013e368d02db07c0662390eadd",
            "0x00000000000000000000000099fe001eb3a3cc6323d386ac7c7a74cdf2633349"
          ],
          "data": "0x00000000000000000000000000000000000000000000d3c21bcecceda1000000",
          "blockHash": "0xeacbf1baea89d6783dc6563c89e45ebdc16828a38ad08dc84f81ad503cb2aba1",
          "blockNumber": "0x171d671",
          "transactionHash": "0xe7a77a85c664a03fc5d6d6fc93030aa6659e9a2528b7e85fdec5a04409f574d7",
          "transactionIndex": "0x2",
          "logIndex": "0x1",
          "removed": false
        }
      ],
      "logsBloom": "0x00000000000000000000000000000000000000000000000000001000000000000000000000000000000000000000000000000000000000000000000000200000000000000000000000000000000000000000000000000000000000000000000000000000000000200000000000000000000000100000000000000000000000000000000000000000000000000000000000000000000000000000000200000000120000000000000000000000000000000020000000000000000001000000000000000000000000000000000000000000000000020000000000000000004000000010000000000000000000000000000000000000000000000000000000000000",
      "type": "0x2",
      "transactionHash": "0xe7a77a85c664a03fc5d6d6fc93030aa6659e9a2528b7e85fdec5a04409f574d7",
      "transactionIndex": "0x2",
      "blockHash": "0xeacbf1baea89d6783dc6563c89e45ebdc16828a38ad08dc84f81ad503cb2aba1",
      "blockNumber": "0x171d671",
      "gasUsed": "0x6994",
      "effectiveGasPrice": "0xfe",
      "from": "0x3eede3fe85f32d013e368d02db07c0662390eadd",
      "to": "0x0e5cf4661bc46da84efb649ce2f5c0ee3c47c3b2",
      "contractAddress": null,
      "l1BaseFeeScalar": "0x2af8",
      "l1BlobBaseFee": "0x2",
      "l1BlobBaseFeeScalar": "0x109618",
      "l1Fee": "0xc0ba87",
      "l1GasPrice": "0xaf347",
      "l1GasUsed": "0x640"
    }
  ],
  "libraries": [],
  "pending": [],
  "returns": {},
  "timestamp": 1753788352,
  "chain": 4202,
  "commit": "a170f76"
}