{
  "transactions": [
    {
      "hash": "0x76a3be146e301de4ae3519963ead4878a121b4e97c6692140a2c5a275130eac2",
      "transactionType": "CALL",
      "contractName": null,
      "contractAddress": "0x9a2676cb2e27a4dfc7c6085a521d6a0d82648652",
      "function": "approve(address,uint256)",
      "arguments": [
        "0x2Cfe3EAA35ec3Dc47062B6f626421F0cFCc5aB74",
        "1000000000000000000000000"
      ],
      "transaction": {
        "from": "0x3eede3fe85f32d013e368d02db07c0662390eadd",
        "to": "0x9a2676cb2e27a4dfc7c6085a521d6a0d82648652",
        "gas": "0x91e5",
        "value": "0x0",
        "input": "0x095ea7b30000000000000000000000002cfe3eaa35ec3dc47062b6f626421f0cfcc5ab7400000000000000000000000000000000000000000000d3c21bcecceda1000000",
        "nonce": "0x42",
        "chainId": "0x106a"
      },
      "additionalContracts": [],
      "isFixedGasLimit": false
    },
    {
      "hash": "0x194631bc0b8fb39306098d7f48c9bf9b5d8ce53dae3b2c85e26e96efb0304df9",
      "transactionType": "CALL",
      "contractName": null,
      "contractAddress": "0x3f51153d99b3f57fd9d46b685278ecfdd6fc5245",
      "function": "approve(address,uint256)",
      "arguments": [
        "0x2Cfe3EAA35ec3Dc47062B6f626421F0cFCc5aB74",
        "1000000000000000000000000"
      ],
      "transaction": {
        "from": "0x3eede3fe85f32d013e368d02db07c0662390eadd",
        "to": "0x3f51153d99b3f57fd9d46b685278ecfdd6fc5245",
        "gas": "0x91e5",
        "value": "0x0",
        "input": "0x095ea7b30000000000000000000000002cfe3eaa35ec3dc47062b6f626421f0cfcc5ab7400000000000000000000000000000000000000000000d3c21bcecceda1000000",
        "nonce": "0x43",
        "chainId": "0x106a"
      },
      "additionalContracts": [],
      "isFixedGasLimit": false
    },
    {
      "hash": "0xc9778f4aea42323be72debf4645140979a540b52ca6afc64ac41092d9da7123c",
      "transactionType": "CALL",
      "contractName": null,
      "contractAddress": "0x2728dd8b45b788e26d12b13db5a244e5403e7eda",
      "function": "approve(address,uint256)",
      "arguments": [
        "0x2Cfe3EAA35ec3Dc47062B6f626421F0cFCc5aB74",
        "1000000000000000000000000"
      ],
      "transaction": {
        "from": "0x3eede3fe85f32d013e368d02db07c0662390eadd",
        "to": "0x2728dd8b45b788e26d12b13db5a244e5403e7eda",
        "gas": "0x8edc",
        "value": "0x0",
        "input": "0x095ea7b30000000000000000000000002cfe3eaa35ec3dc47062b6f626421f0cfcc5ab7400000000000000000000000000000000000000000000d3c21bcecceda1000000",
        "nonce": "0x44",
        "chainId": "0x106a"
      },
      "additionalContracts": [],
      "isFixedGasLimit": false
    }
  ],
  "receipts": [
    {
      "status": "0x1",
      "cumulativeGasUsed": "0x11de0",
      "logs": [
        {
          "address": "0x9a2676cb2e27a4dfc7c6085a521d6a0d82648652",
          "topics": [
            "0x8c5be1e5ebec7d5bd14f71427d1e84f3dd0314c0f7b2291e5b200ac8c7c3b925",
            "0x0000000000000000000000003eede3fe85f32d013e368d02db07c0662390eadd",
            "0x0000000000000000000000002cfe3eaa35ec3dc47062b6f626421f0cfcc5ab74"
          ],
          "data": "0x00000000000000000000000000000000000000000000d3c21bcecceda1000000",
          "blockHash": "0x945423100a4871dd46a996702a80718114b084df7fb0ad8c16d761690d03a760",
          "blockNumber": "0x1720390",
          "transactionHash": "0x76a3be146e301de4ae3519963ead4878a121b4e97c6692140a2c5a275130eac2",
          "transactionIndex": "0x1",
          "logIndex": "0x0",
          "removed": false
        }
      ],
      "logsBloom": "0x00000000000000000000000004000000002000100000000000000000000000000000000000000000000000020000000000000000000000000000000000200000000000000000000000000000000000000000000000000000000000000000000000000000000000200000000000000000000000000000000800000000000000000000000000000000000000000000000000000000000000000000000000000000020000000000000000000000000000000020000000000000000001000000000000000000000000000000000000000000000000000080000000000000000000000010000000000000000000000000000000000000000000000000000000000000",
      "type": "0x2",
      "transactionHash": "0x76a3be146e301de4ae3519963ead4878a121b4e97c6692140a2c5a275130eac2",
      "transactionIndex": "0x1",
      "blockHash": "0x945423100a4871dd46a996702a80718114b084df7fb0ad8c16d761690d03a760",
      "blockNumber": "0x1720390",
      "gasUsed": "0x69a0",
      "effectiveGasPrice": "0xfe",
      "from": "0x3eede3fe85f32d013e368d02db07c0662390eadd",
      "to": "0x9a2676cb2e27a4dfc7c6085a521d6a0d82648652",
      "contractAddress": null,
      "l1BaseFeeScalar": "0x2af8",
      "l1BlobBaseFee": "0x1",
      "l1BlobBaseFeeScalar": "0x109618",
      "l1Fee": "0x3878457f",
      "l1GasPrice": "0x3356104",
      "l1GasUsed": "0x640"
    },
    {
      "status": "0x1",
      "cumulativeGasUsed": "0x18780",
      "logs": [
        {
          "address": "0x3f51153d99b3f57fd9d46b685278ecfdd6fc5245",
          "topics": [
            "0x8c5be1e5ebec7d5bd14f71427d1e84f3dd0314c0f7b2291e5b200ac8c7c3b925",
            "0x0000000000000000000000003eede3fe85f32d013e368d02db07c0662390eadd",
            "0x0000000000000000000000002cfe3eaa35ec3dc47062b6f626421f0cfcc5ab74"
          ],
          "data": "0x00000000000000000000000000000000000000000000d3c21bcecceda1000000",
          "blockHash": "0x945423100a4871dd46a996702a80718114b084df7fb0ad8c16d761690d03a760",
          "blockNumber": "0x1720390",
          "transactionHash": "0x194631bc0b8fb39306098d7f48c9bf9b5d8ce53dae3b2c85e26e96efb0304df9",
          "transactionIndex": "0x2",
          "logIndex": "0x1",
          "removed": false
        }
      ],
      "logsBloom": "0x00000000000000000000000000000000000000100000000000000000000000000000000000000000000000020000000000000000000000000000000000200000000000000000000000000000000000000000000000400000000000000000000010000000400000200000000000000000000000000000000000000000000000000000000000000000000000000000000000000000000000000000000000000000020000000000000000000000000000000020000000000000000001000000000000000000000000000000000000000000000000000080000000000000000000000010000000000000000000000000000000000000000000000000000000000000",
      "type": "0x2",
      "transactionHash": "0x194631bc0b8fb39306098d7f48c9bf9b5d8ce53dae3b2c85e26e96efb0304df9",
      "transactionIndex": "0x2",
      "blockHash": "0x945423100a4871dd46a996702a80718114b084df7fb0ad8c16d761690d03a760",
      "blockNumber": "0x1720390",
      "gasUsed": "0x69a0",
      "effectiveGasPrice": "0xfe",
      "from": "0x3eede3fe85f32d013e368d02db07c0662390eadd",
      "to": "0x3f51153d99b3f57fd9d46b685278ecfdd6fc5245",
      "contractAddress": null,
      "l1BaseFeeScalar": "0x2af8",
      "l1BlobBaseFee": "0x1",
      "l1BlobBaseFeeScalar": "0x109618",
      "l1Fee": "0x3878457f",
      "l1GasPrice": "0x3356104",
      "l1GasUsed": "0x640"
    },
    {
      "status": "0x1",
      "cumulativeGasUsed": "0x1eeef",
      "logs": [
        {
          "address": "0x2728dd8b45b788e26d12b13db5a244e5403e7eda",
          "topics": [
            "0x8c5be1e5ebec7d5bd14f71427d1e84f3dd0314c0f7b2291e5b200ac8c7c3b925",
            "0x0000000000000000000000003eede3fe85f32d013e368d02db07c0662390eadd",
            "0x0000000000000000000000002cfe3eaa35ec3dc47062b6f626421f0cfcc5ab74"
          ],
          "data": "0x00000000000000000000000000000000000000000000d3c21bcecceda1000000",
          "blockHash": "0x945423100a4871dd46a996702a80718114b084df7fb0ad8c16d761690d03a760",
          "blockNumber": "0x1720390",
          "transactionHash": "0xc9778f4aea42323be72debf4645140979a540b52ca6afc64ac41092d9da7123c",
          "transactionIndex": "0x3",
          "logIndex": "0x2",
          "removed": false
        }
      ],
      "logsBloom": "0x00000000000000000000008000000000000000100000000000000000000000000000000000000000000000020000000000000000000000000000002000200000000000000000000000000000000000000000000000000000000000000000000000000000000000200000000000000000000000000000000000000000000000000000000000000000000000000000000000000000000000000000000000000000020000000000000000000000000000000020000000000000000001000000000000000000000000000000000000000000000000000080000000000000000000000010000000000000080000000000000000000000000000000000000000000000",
      "type": "0x2",
      "transactionHash": "0xc9778f4aea42323be72debf4645140979a540b52ca6afc64ac41092d9da7123c",
      "transactionIndex": "0x3",
      "blockHash": "0x945423100a4871dd46a996702a80718114b084df7fb0ad8c16d761690d03a760",
      "blockNumber": "0x1720390",
      "gasUsed": "0x676f",
      "effectiveGasPrice": "0xfe",
      "from": "0x3eede3fe85f32d013e368d02db07c0662390eadd",
      "to": "0x2728dd8b45b788e26d12b13db5a244e5403e7eda",
      "contractAddress": null,
      "l1BaseFeeScalar": "0x2af8",
      "l1BlobBaseFee": "0x1",
      "l1BlobBaseFeeScalar": "0x109618",
      "l1Fee": "0x3878457f",
      "l1GasPrice": "0x3356104",
      "l1GasUsed": "0x640"
    }
  ],
  "libraries": [],
  "pending": [],
  "returns": {},
  "timestamp": 1753811457,
  "chain": 4202,
  "commit": "6182543"
}