{
  "transactions": [
    {
      "hash": "0xee6c982b10b79bb87e3636ec2632ef57a63a3a6fff18fa2a1562f36363f6f7d7",
      "transactionType": "CALL",
      "contractName": null,
      "contractAddress": "0x9a2676cb2e27a4dfc7c6085a521d6a0d82648652",
      "function": "approve(address,uint256)",
      "arguments": [
        "0x2Cfe3EAA35ec3Dc47062B6f626421F0cFCc5aB74",
        "1000000000000000000000000"
      ],
      "transaction": {
        "from": "0x3eede3fe85f32d013e368d02db07c0662390eadd",
        "to": "0x9a2676cb2e27a4dfc7c6085a521d6a0d82648652",
        "gas": "0xfd42",
        "value": "0x0",
        "input": "0x095ea7b30000000000000000000000002cfe3eaa35ec3dc47062b6f626421f0cfcc5ab7400000000000000000000000000000000000000000000d3c21bcecceda1000000",
        "nonce": "0x3c",
        "chainId": "0x106a"
      },
      "additionalContracts": [],
      "isFixedGasLimit": false
    },
    {
      "hash": "0x3cf0235d9333fa301b07077898e69be325cb97fde2efbdb54b720bdd71eb2b2c",
      "transactionType": "CALL",
      "contractName": null,
      "contractAddress": "0x3f51153d99b3f57fd9d46b685278ecfdd6fc5245",
      "function": "approve(address,uint256)",
      "arguments": [
        "0x2Cfe3EAA35ec3Dc47062B6f626421F0cFCc5aB74",
        "1000000000000000000000000"
      ],
      "transaction": {
        "from": "0x3eede3fe85f32d013e368d02db07c0662390eadd",
        "to": "0x3f51153d99b3f57fd9d46b685278ecfdd6fc5245",
        "gas": "0xfd42",
        "value": "0x0",
        "input": "0x095ea7b30000000000000000000000002cfe3eaa35ec3dc47062b6f626421f0cfcc5ab7400000000000000000000000000000000000000000000d3c21bcecceda1000000",
        "nonce": "0x3d",
        "chainId": "0x106a"
      },
      "additionalContracts": [],
      "isFixedGasLimit": false
    },
    {
      "hash": "0xd48a73eff76223a9154849d3f551cb5e97b72a8607a3abbe5694498498c74b64",
      "transactionType": "CALL",
      "contractName": null,
      "contractAddress": "0x2728dd8b45b788e26d12b13db5a244e5403e7eda",
      "function": "approve(address,uint256)",
      "arguments": [
        "0x2Cfe3EAA35ec3Dc47062B6f626421F0cFCc5aB74",
        "1000000000000000000000000"
      ],
      "transaction": {
        "from": "0x3eede3fe85f32d013e368d02db07c0662390eadd",
        "to": "0x2728dd8b45b788e26d12b13db5a244e5403e7eda",
        "gas": "0x9df8",
        "value": "0x0",
        "input": "0x095ea7b30000000000000000000000002cfe3eaa35ec3dc47062b6f626421f0cfcc5ab7400000000000000000000000000000000000000000000d3c21bcecceda1000000",
        "nonce": "0x3e",
        "chainId": "0x106a"
      },
      "additionalContracts": [],
      "isFixedGasLimit": false
    }
  ],
  "receipts": [
    {
      "status": "0x1",
      "cumulativeGasUsed": "0x16b9c",
      "logs": [
        {
          "address": "0x9a2676cb2e27a4dfc7c6085a521d6a0d82648652",
          "topics": [
            "0x8c5be1e5ebec7d5bd14f71427d1e84f3dd0314c0f7b2291e5b200ac8c7c3b925",
            "0x0000000000000000000000003eede3fe85f32d013e368d02db07c0662390eadd",
            "0x0000000000000000000000002cfe3eaa35ec3dc47062b6f626421f0cfcc5ab74"
          ],
          "data": "0x00000000000000000000000000000000000000000000d3c21bcecceda1000000",
          "blockHash": "0x2e4a048af9ff681eb92d1b50446cbd7827f44b460ea50745027d6d955f5807aa",
          "blockNumber": "0x1720314",
          "transactionHash": "0xee6c982b10b79bb87e3636ec2632ef57a63a3a6fff18fa2a1562f36363f6f7d7",
          "transactionIndex": "0x1",
          "logIndex": "0x0",
          "removed": false
        }
      ],
      "logsBloom": "0x00000000000000000000000004000000002000100000000000000000000000000000000000000000000000020000000000000000000000000000000000200000000000000000000000000000000000000000000000000000000000000000000000000000000000200000000000000000000000000000000800000000000000000000000000000000000000000000000000000000000000000000000000000000020000000000000000000000000000000020000000000000000001000000000000000000000000000000000000000000000000000080000000000000000000000010000000000000000000000000000000000000000000000000000000000000",
      "type": "0x2",
      "transactionHash": "0xee6c982b10b79bb87e3636ec2632ef57a63a3a6fff18fa2a1562f36363f6f7d7",
      "transactionIndex": "0x1",
      "blockHash": "0x2e4a048af9ff681eb92d1b50446cbd7827f44b460ea50745027d6d955f5807aa",
      "blockNumber": "0x1720314",
      "gasUsed": "0xb75c",
      "effectiveGasPrice": "0xfe",
      "from": "0x3eede3fe85f32d013e368d02db07c0662390eadd",
      "to": "0x9a2676cb2e27a4dfc7c6085a521d6a0d82648652",
      "contractAddress": null,
      "l1BaseFeeScalar": "0x2af8",
      "l1BlobBaseFee": "0x1",
      "l1BlobBaseFeeScalar": "0x109618",
      "l1Fee": "0x42e2c617",
      "l1GasPrice": "0x3cce281",
      "l1GasUsed": "0x640"
    },
    {
      "status": "0x1",
      "cumulativeGasUsed": "0x222f8",
      "logs": [
        {
          "address": "0x3f51153d99b3f57fd9d46b685278ecfdd6fc5245",
          "topics": [
            "0x8c5be1e5ebec7d5bd14f71427d1e84f3dd0314c0f7b2291e5b200ac8c7c3b925",
            "0x0000000000000000000000003eede3fe85f32d013e368d02db07c0662390eadd",
            "0x0000000000000000000000002cfe3eaa35ec3dc47062b6f626421f0cfcc5ab74"
          ],
          "data": "0x00000000000000000000000000000000000000000000d3c21bcecceda1000000",
          "blockHash": "0x2e4a048af9ff681eb92d1b50446cbd7827f44b460ea50745027d6d955f5807aa",
          "blockNumber": "0x1720314",
          "transactionHash": "0x3cf0235d9333fa301b07077898e69be325cb97fde2efbdb54b720bdd71eb2b2c",
          "transactionIndex": "0x2",
          "logIndex": "0x1",
          "removed": false
        }
      ],
      "logsBloom": "0x00000000000000000000000000000000000000100000000000000000000000000000000000000000000000020000000000000000000000000000000000200000000000000000000000000000000000000000000000400000000000000000000010000000400000200000000000000000000000000000000000000000000000000000000000000000000000000000000000000000000000000000000000000000020000000000000000000000000000000020000000000000000001000000000000000000000000000000000000000000000000000080000000000000000000000010000000000000000000000000000000000000000000000000000000000000",
      "type": "0x2",
      "transactionHash": "0x3cf0235d9333fa301b07077898e69be325cb97fde2efbdb54b720bdd71eb2b2c",
      "transactionIndex": "0x2",
      "blockHash": "0x2e4a048af9ff681eb92d1b50446cbd7827f44b460ea50745027d6d955f5807aa",
      "blockNumber": "0x1720314",
      "gasUsed": "0xb75c",
      "effectiveGasPrice": "0xfe",
      "from": "0x3eede3fe85f32d013e368d02db07c0662390eadd",
      "to": "0x3f51153d99b3f57fd9d46b685278ecfdd6fc5245",
      "contractAddress": null,
      "l1BaseFeeScalar": "0x2af8",
      "l1BlobBaseFee": "0x1",
      "l1BlobBaseFeeScalar": "0x109618",
      "l1Fee": "0x42e2c617",
      "l1GasPrice": "0x3cce281",
      "l1GasUsed": "0x640"
    },
    {
      "status": "0x1",
      "cumulativeGasUsed": "0x29557",
      "logs": [
        {
          "address": "0x2728dd8b45b788e26d12b13db5a244e5403e7eda",
          "topics": [
            "0x8c5be1e5ebec7d5bd14f71427d1e84f3dd0314c0f7b2291e5b200ac8c7c3b925",
            "0x0000000000000000000000003eede3fe85f32d013e368d02db07c0662390eadd",
            "0x0000000000000000000000002cfe3eaa35ec3dc47062b6f626421f0cfcc5ab74"
          ],
          "data": "0x00000000000000000000000000000000000000000000d3c21bcecceda1000000",
          "blockHash": "0x2e4a048af9ff681eb92d1b50446cbd7827f44b460ea50745027d6d955f5807aa",
          "blockNumber": "0x1720314",
          "transactionHash": "0xd48a73eff76223a9154849d3f551cb5e97b72a8607a3abbe5694498498c74b64",
          "transactionIndex": "0x3",
          "logIndex": "0x2",
          "removed": false
        }
      ],
      "logsBloom": "0x00000000000000000000008000000000000000100000000000000000000000000000000000000000000000020000000000000000000000000000002000200000000000000000000000000000000000000000000000000000000000000000000000000000000000200000000000000000000000000000000000000000000000000000000000000000000000000000000000000000000000000000000000000000020000000000000000000000000000000020000000000000000001000000000000000000000000000000000000000000000000000080000000000000000000000010000000000000080000000000000000000000000000000000000000000000",
      "type": "0x2",
      "transactionHash": "0xd48a73eff76223a9154849d3f551cb5e97b72a8607a3abbe5694498498c74b64",
      "transactionIndex": "0x3",
      "blockHash": "0x2e4a048af9ff681eb92d1b50446cbd7827f44b460ea50745027d6d955f5807aa",
      "blockNumber": "0x1720314",
      "gasUsed": "0x725f",
      "effectiveGasPrice": "0xfe",
      "from": "0x3eede3fe85f32d013e368d02db07c0662390eadd",
      "to": "0x2728dd8b45b788e26d12b13db5a244e5403e7eda",
      "contractAddress": null,
      "l1BaseFeeScalar": "0x2af8",
      "l1BlobBaseFee": "0x1",
      "l1BlobBaseFeeScalar": "0x109618",
      "l1Fee": "0x42e2c617",
      "l1GasPrice": "0x3cce281",
      "l1GasUsed": "0x640"
    }
  ],
  "libraries": [],
  "pending": [],
  "returns": {},
  "timestamp": 1753811208,
  "chain": 4202,
  "commit": "6182543"
}