{
  "transactions": [
    {
      "hash": "0x7fb5bc7b5e8e3c7aadae2bfb4ecbe8c1a7fccaac7b39d5afa0bc2f3b7c6acf7e",
      "transactionType": "CALL",
      "contractName": null,
      "contractAddress": "0x9a2676cb2e27a4dfc7c6085a521d6a0d82648652",
      "function": "approve(address,uint256)",
      "arguments": [
        "0x2Cfe3EAA35ec3Dc47062B6f626421F0cFCc5aB74",
        "1000000000000000000000000"
      ],
      "transaction": {
        "from": "0x3eede3fe85f32d013e368d02db07c0662390eadd",
        "to": "0x9a2676cb2e27a4dfc7c6085a521d6a0d82648652",
        "gas": "0x91e5",
        "value": "0x0",
        "input": "0x095ea7b30000000000000000000000002cfe3eaa35ec3dc47062b6f626421f0cfcc5ab7400000000000000000000000000000000000000000000d3c21bcecceda1000000",
        "nonce": "0x3f",
        "chainId": "0x106a"
      },
      "additionalContracts": [],
      "isFixedGasLimit": false
    },
    {
      "hash": "0xdc4bbee9b8e2632b69a3b1318e54042b4597782de63ed04c58d75d84a8266a67",
      "transactionType": "CALL",
      "contractName": null,
      "contractAddress": "0x3f51153d99b3f57fd9d46b685278ecfdd6fc5245",
      "function": "approve(address,uint256)",
      "arguments": [
        "0x2Cfe3EAA35ec3Dc47062B6f626421F0cFCc5aB74",
        "1000000000000000000000000"
      ],
      "transaction": {
        "from": "0x3eede3fe85f32d013e368d02db07c0662390eadd",
        "to": "0x3f51153d99b3f57fd9d46b685278ecfdd6fc5245",
        "gas": "0x91e5",
        "value": "0x0",
        "input": "0x095ea7b30000000000000000000000002cfe3eaa35ec3dc47062b6f626421f0cfcc5ab7400000000000000000000000000000000000000000000d3c21bcecceda1000000",
        "nonce": "0x40",
        "chainId": "0x106a"
      },
      "additionalContracts": [],
      "isFixedGasLimit": false
    },
    {
      "hash": "0x0201f751a05716731f2e9f1055db886421f2ff97fd0435a338a4fd680b835a5f",
      "transactionType": "CALL",
      "contractName": null,
      "contractAddress": "0x2728dd8b45b788e26d12b13db5a244e5403e7eda",
      "function": "approve(address,uint256)",
      "arguments": [
        "0x2Cfe3EAA35ec3Dc47062B6f626421F0cFCc5aB74",
        "1000000000000000000000000"
      ],
      "transaction": {
        "from": "0x3eede3fe85f32d013e368d02db07c0662390eadd",
        "to": "0x2728dd8b45b788e26d12b13db5a244e5403e7eda",
        "gas": "0x8edc",
        "value": "0x0",
        "input": "0x095ea7b30000000000000000000000002cfe3eaa35ec3dc47062b6f626421f0cfcc5ab7400000000000000000000000000000000000000000000d3c21bcecceda1000000",
        "nonce": "0x41",
        "chainId": "0x106a"
      },
      "additionalContracts": [],
      "isFixedGasLimit": false
    }
  ],
  "receipts": [
    {
      "status": "0x1",
      "cumulativeGasUsed": "0x11de0",
      "logs": [
        {
          "address": "0x9a2676cb2e27a4dfc7c6085a521d6a0d82648652",
          "topics": [
            "0x8c5be1e5ebec7d5bd14f71427d1e84f3dd0314c0f7b2291e5b200ac8c7c3b925",
            "0x0000000000000000000000003eede3fe85f32d013e368d02db07c0662390eadd",
            "0x0000000000000000000000002cfe3eaa35ec3dc47062b6f626421f0cfcc5ab74"
          ],
          "data": "0x00000000000000000000000000000000000000000000d3c21bcecceda1000000",
          "blockHash": "0x4c7ca2aff45cfe3f82a10d0785b09f8bc93564e39c64121e3c5729dff9612207",
          "blockNumber": "0x1720347",
          "transactionHash": "0x7fb5bc7b5e8e3c7aadae2bfb4ecbe8c1a7fccaac7b39d5afa0bc2f3b7c6acf7e",
          "transactionIndex": "0x1",
          "logIndex": "0x0",
          "removed": false
        }
      ],
      "logsBloom": "0x00000000000000000000000004000000002000100000000000000000000000000000000000000000000000020000000000000000000000000000000000200000000000000000000000000000000000000000000000000000000000000000000000000000000000200000000000000000000000000000000800000000000000000000000000000000000000000000000000000000000000000000000000000000020000000000000000000000000000000020000000000000000001000000000000000000000000000000000000000000000000000080000000000000000000000010000000000000000000000000000000000000000000000000000000000000",
      "type": "0x2",
      "transactionHash": "0x7fb5bc7b5e8e3c7aadae2bfb4ecbe8c1a7fccaac7b39d5afa0bc2f3b7c6acf7e",
      "transactionIndex": "0x1",
      "blockHash": "0x4c7ca2aff45cfe3f82a10d0785b09f8bc93564e39c64121e3c5729dff9612207",
      "blockNumber": "0x1720347",
      "gasUsed": "0x69a0",
      "effectiveGasPrice": "0xfe",
      "from": "0x3eede3fe85f32d013e368d02db07c0662390eadd",
      "to": "0x9a2676cb2e27a4dfc7c6085a521d6a0d82648652",
      "contractAddress": null,
      "l1BaseFeeScalar": "0x2af8",
      "l1BlobBaseFee": "0x1",
      "l1BlobBaseFeeScalar": "0x109618",
      "l1Fee": "0x36cfdb56",
      "l1GasPrice": "0x31d43b6",
      "l1GasUsed": "0x640"
    },
    {
      "status": "0x1",
      "cumulativeGasUsed": "0x18780",
      "logs": [
        {
          "address": "0x3f51153d99b3f57fd9d46b685278ecfdd6fc5245",
          "topics": [
            "0x8c5be1e5ebec7d5bd14f71427d1e84f3dd0314c0f7b2291e5b200ac8c7c3b925",
            "0x0000000000000000000000003eede3fe85f32d013e368d02db07c0662390eadd",
            "0x0000000000000000000000002cfe3eaa35ec3dc47062b6f626421f0cfcc5ab74"
          ],
          "data": "0x00000000000000000000000000000000000000000000d3c21bcecceda1000000",
          "blockHash": "0x4c7ca2aff45cfe3f82a10d0785b09f8bc93564e39c64121e3c5729dff9612207",
          "blockNumber": "0x1720347",
          "transactionHash": "0xdc4bbee9b8e2632b69a3b1318e54042b4597782de63ed04c58d75d84a8266a67",
          "transactionIndex": "0x2",
          "logIndex": "0x1",
          "removed": false
        }
      ],
      "logsBloom": "0x00000000000000000000000000000000000000100000000000000000000000000000000000000000000000020000000000000000000000000000000000200000000000000000000000000000000000000000000000400000000000000000000010000000400000200000000000000000000000000000000000000000000000000000000000000000000000000000000000000000000000000000000000000000020000000000000000000000000000000020000000000000000001000000000000000000000000000000000000000000000000000080000000000000000000000010000000000000000000000000000000000000000000000000000000000000",
      "type": "0x2",
      "transactionHash": "0xdc4bbee9b8e2632b69a3b1318e54042b4597782de63ed04c58d75d84a8266a67",
      "transactionIndex": "0x2",
      "blockHash": "0x4c7ca2aff45cfe3f82a10d0785b09f8bc93564e39c64121e3c5729dff9612207",
      "blockNumber": "0x1720347",
      "gasUsed": "0x69a0",
      "effectiveGasPrice": "0xfe",
      "from": "0x3eede3fe85f32d013e368d02db07c0662390eadd",
      "to": "0x3f51153d99b3f57fd9d46b685278ecfdd6fc5245",
      "contractAddress": null,
      "l1BaseFeeScalar": "0x2af8",
      "l1BlobBaseFee": "0x1",
      "l1BlobBaseFeeScalar": "0x109618",
      "l1Fee": "0x36cfdb56",
      "l1GasPrice": "0x31d43b6",
      "l1GasUsed": "0x640"
    },
    {
      "status": "0x1",
      "cumulativeGasUsed": "0x1eeef",
      "logs": [
        {
          "address": "0x2728dd8b45b788e26d12b13db5a244e5403e7eda",
          "topics": [
            "0x8c5be1e5ebec7d5bd14f71427d1e84f3dd0314c0f7b2291e5b200ac8c7c3b925",
            "0x0000000000000000000000003eede3fe85f32d013e368d02db07c0662390eadd",
            "0x0000000000000000000000002cfe3eaa35ec3dc47062b6f626421f0cfcc5ab74"
          ],
          "data": "0x00000000000000000000000000000000000000000000d3c21bcecceda1000000",
          "blockHash": "0x4c7ca2aff45cfe3f82a10d0785b09f8bc93564e39c64121e3c5729dff9612207",
          "blockNumber": "0x1720347",
          "transactionHash": "0x0201f751a05716731f2e9f1055db886421f2ff97fd0435a338a4fd680b835a5f",
          "transactionIndex": "0x3",
          "logIndex": "0x2",
          "removed": false
        }
      ],
      "logsBloom": "0x00000000000000000000008000000000000000100000000000000000000000000000000000000000000000020000000000000000000000000000002000200000000000000000000000000000000000000000000000000000000000000000000000000000000000200000000000000000000000000000000000000000000000000000000000000000000000000000000000000000000000000000000000000000020000000000000000000000000000000020000000000000000001000000000000000000000000000000000000000000000000000080000000000000000000000010000000000000080000000000000000000000000000000000000000000000",
      "type": "0x2",
      "transactionHash": "0x0201f751a05716731f2e9f1055db886421f2ff97fd0435a338a4fd680b835a5f",
      "transactionIndex": "0x3",
      "blockHash": "0x4c7ca2aff45cfe3f82a10d0785b09f8bc93564e39c64121e3c5729dff9612207",
      "blockNumber": "0x1720347",
      "gasUsed": "0x676f",
      "effectiveGasPrice": "0xfe",
      "from": "0x3eede3fe85f32d013e368d02db07c0662390eadd",
      "to": "0x2728dd8b45b788e26d12b13db5a244e5403e7eda",
      "contractAddress": null,
      "l1BaseFeeScalar": "0x2af8",
      "l1BlobBaseFee": "0x1",
      "l1BlobBaseFeeScalar": "0x109618",
      "l1Fee": "0x36cfdb56",
      "l1GasPrice": "0x31d43b6",
      "l1GasUsed": "0x640"
    }
  ],
  "libraries": [],
  "pending": [],
  "returns": {},
  "timestamp": 1753811311,
  "chain": 4202,
  "commit": "6182543"
}