{
  "transactions": [
    {
      "hash": "0x5678302ffff66209d8b0f0d8f01fbfcd95126fd47812b38f6c18249c76a19d4c",
      "transactionType": "CALL",
      "contractName": null,
      "contractAddress": "0x0e5cf4661bc46da84efb649ce2f5c0ee3c47c3b2",
      "function": "approve(address,uint256)",
      "arguments": [
        "0x99Fe001eb3A3cc6323D386AC7C7A74CDF2633349",
        "1000000000000000000000000"
      ],
      "transaction": {
        "from": "0x3eede3fe85f32d013e368d02db07c0662390eadd",
        "to": "0x0e5cf4661bc46da84efb649ce2f5c0ee3c47c3b2",
        "gas": "0xa0ef",
        "value": "0x0",
        "input": "0x095ea7b300000000000000000000000099fe001eb3a3cc6323d386ac7c7a74cdf263334900000000000000000000000000000000000000000000d3c21bcecceda1000000",
        "nonce": "0x1b",
        "chainId": "0x106a"
      },
      "additionalContracts": [],
      "isFixedGasLimit": false
    },
    {
      "hash": "0x37323fef48fe2e7dc0a10c41b6f338e4a4daf227a12ff4d14713e8e422e1dbbf",
      "transactionType": "CALL",
      "contractName": null,
      "contractAddress": "0x2b070c96ebf2e6a23f1407c4d843054d9477172b",
      "function": "approve(address,uint256)",
      "arguments": [
        "0x99Fe001eb3A3cc6323D386AC7C7A74CDF2633349",
        "1000000000000000000000000"
      ],
      "transaction": {
        "from": "0x3eede3fe85f32d013e368d02db07c0662390eadd",
        "to": "0x2b070c96ebf2e6a23f1407c4d843054d9477172b",
        "gas": "0x91d4",
        "value": "0x0",
        "input": "0x095ea7b300000000000000000000000099fe001eb3a3cc6323d386ac7c7a74cdf263334900000000000000000000000000000000000000000000d3c21bcecceda1000000",
        "nonce": "0x1c",
        "chainId": "0x106a"
      },
      "additionalContracts": [],
      "isFixedGasLimit": false
    }
  ],
  "receipts": [
    {
      "status": "0x1",
      "cumulativeGasUsed": "0x128c4",
      "logs": [
        {
          "address": "0x0e5cf4661bc46da84efb649ce2f5c0ee3c47c3b2",
          "topics": [
            "0x8c5be1e5ebec7d5bd14f71427d1e84f3dd0314c0f7b2291e5b200ac8c7c3b925",
            "0x0000000000000000000000003eede3fe85f32d013e368d02db07c0662390eadd",
            "0x00000000000000000000000099fe001eb3a3cc6323d386ac7c7a74cdf2633349"
          ],
          "data": "0x00000000000000000000000000000000000000000000d3c21bcecceda1000000",
          "blockHash": "0xcb3ac2387a9c9fc29068cb9b14ab2d901e65b0ba506a306aef999dcc4ee235a2",
          "blockNumber": "0x171ef02",
          "transactionHash": "0x5678302ffff66209d8b0f0d8f01fbfcd95126fd47812b38f6c18249c76a19d4c",
          "transactionIndex": "0x1",
          "logIndex": "0x0",
          "removed": false
        }
      ],
      "logsBloom": "0x00000000000000000000000000000000000000000000000000001000000000000000000000000000000000000000000000000000000000000000000000200000000000000000000000000000000000000000000000000000000000000000000000000000000000200000000000000000000000100000000000000000000000000000000000000000000000000000000000000000000000000000000200000000120000000000000000000000000000000020000000000000000001000000000000000000000000000000000000000000000000020000000000000000004000000010000000000000000000000000000000000000000000000000000000000000",
      "type": "0x2",
      "transactionHash": "0x5678302ffff66209d8b0f0d8f01fbfcd95126fd47812b38f6c18249c76a19d4c",
      "transactionIndex": "0x1",
      "blockHash": "0xcb3ac2387a9c9fc29068cb9b14ab2d901e65b0ba506a306aef999dcc4ee235a2",
      "blockNumber": "0x171ef02",
      "gasUsed": "0x7484",
      "effectiveGasPrice": "0xfe",
      "from": "0x3eede3fe85f32d013e368d02db07c0662390eadd",
      "to": "0x0e5cf4661bc46da84efb649ce2f5c0ee3c47c3b2",
      "contractAddress": null,
      "l1BaseFeeScalar": "0x2af8",
      "l1BlobBaseFee": "0x1",
      "l1BlobBaseFeeScalar": "0x109618",
      "l1Fee": "0x74505e73",
      "l1GasPrice": "0x69bd6cc",
      "l1GasUsed": "0x640"
    },
    {
      "status": "0x1",
      "cumulativeGasUsed": "0x19258",
      "logs": [
        {
          "address": "0x2b070c96ebf2e6a23f1407c4d843054d9477172b",
          "topics": [
            "0x8c5be1e5ebec7d5bd14f71427d1e84f3dd0314c0f7b2291e5b200ac8c7c3b925",
            "0x0000000000000000000000003eede3fe85f32d013e368d02db07c0662390eadd",
            "0x00000000000000000000000099fe001eb3a3cc6323d386ac7c7a74cdf2633349"
          ],
          "data": "0x00000000000000000000000000000000000000000000d3c21bcecceda1000000",
          "blockHash": "0xcb3ac2387a9c9fc29068cb9b14ab2d901e65b0ba506a306aef999dcc4ee235a2",
          "blockNumber": "0x171ef02",
          "transactionHash": "0x37323fef48fe2e7dc0a10c41b6f338e4a4daf227a12ff4d14713e8e422e1dbbf",
          "transactionIndex": "0x2",
          "logIndex": "0x1",
          "removed": false
        }
      ],
      "logsBloom": "0x00000000000000000000000000000000000000000000000000001000000000000000000000000000000000000000000000000000000000000000000000200000000000000000000000000000000000000000000000000000000000000000000000000000000000200000000000000000000000000000000000000000000000000000000000000000000000000000000000000000000000000000000000000000020000000000000000000000000000000020000000000000000001000000000000000000000100000000000000000001000000020000000000000000004000000050000000000000000000000000000000000000000000000000000000000000",
      "type": "0x2",
      "transactionHash": "0x37323fef48fe2e7dc0a10c41b6f338e4a4daf227a12ff4d14713e8e422e1dbbf",
      "transactionIndex": "0x2",
      "blockHash": "0xcb3ac2387a9c9fc29068cb9b14ab2d901e65b0ba506a306aef999dcc4ee235a2",
      "blockNumber": "0x171ef02",
      "gasUsed": "0x6994",
      "effectiveGasPrice": "0xfe",
      "from": "0x3eede3fe85f32d013e368d02db07c0662390eadd",
      "to": "0x2b070c96ebf2e6a23f1407c4d843054d9477172b",
      "contractAddress": null,
      "l1BaseFeeScalar": "0x2af8",
      "l1BlobBaseFee": "0x1",
      "l1BlobBaseFeeScalar": "0x109618",
      "l1Fee": "0x74505e73",
      "l1GasPrice": "0x69bd6cc",
      "l1GasUsed": "0x640"
    }
  ],
  "libraries": [],
  "pending": [],
  "returns": {},
  "timestamp": 1753800933,
  "chain": 4202,
  "commit": "6182543"
}