{
  "transactions": [
    {
      "hash": "0x68c60131714b906995fb06bc49fdd9503c258168c5a750e19a16ee40e35844ad",
      "transactionType": "CALL",
      "contractName": null,
      "contractAddress": "0x0e5cf4661bc46da84efb649ce2f5c0ee3c47c3b2",
      "function": "approve(address,uint256)",
      "arguments": [
        "0x99Fe001eb3A3cc6323D386AC7C7A74CDF2633349",
        "1000000000000000000000000"
      ],
      "transaction": {
        "from": "0x3eede3fe85f32d013e368d02db07c0662390eadd",
        "to": "0x0e5cf4661bc46da84efb649ce2f5c0ee3c47c3b2",
        "gas": "0xa0ef",
        "value": "0x0",
        "input": "0x095ea7b300000000000000000000000099fe001eb3a3cc6323d386ac7c7a74cdf263334900000000000000000000000000000000000000000000d3c21bcecceda1000000",
        "nonce": "0x1e",
        "chainId": "0x106a"
      },
      "additionalContracts": [],
      "isFixedGasLimit": false
    },
    {
      "hash": "0xfed92a46b0b4210048b72a1434113ab7af8d473659ef1ee0a684c8decc151e80",
      "transactionType": "CALL",
      "contractName": null,
      "contractAddress": "0x2b070c96ebf2e6a23f1407c4d843054d9477172b",
      "function": "approve(address,uint256)",
      "arguments": [
        "0x99Fe001eb3A3cc6323D386AC7C7A74CDF2633349",
        "1000000000000000000000000"
      ],
      "transaction": {
        "from": "0x3eede3fe85f32d013e368d02db07c0662390eadd",
        "to": "0x2b070c96ebf2e6a23f1407c4d843054d9477172b",
        "gas": "0x91d4",
        "value": "0x0",
        "input": "0x095ea7b300000000000000000000000099fe001eb3a3cc6323d386ac7c7a74cdf263334900000000000000000000000000000000000000000000d3c21bcecceda1000000",
        "nonce": "0x1f",
        "chainId": "0x106a"
      },
      "additionalContracts": [],
      "isFixedGasLimit": false
    }
  ],
  "receipts": [
    {
      "status": "0x1",
      "cumulativeGasUsed": "0x33f74",
      "logs": [
        {
          "address": "0x0e5cf4661bc46da84efb649ce2f5c0ee3c47c3b2",
          "topics": [
            "0x8c5be1e5ebec7d5bd14f71427d1e84f3dd0314c0f7b2291e5b200ac8c7c3b925",
            "0x0000000000000000000000003eede3fe85f32d013e368d02db07c0662390eadd",
            "0x00000000000000000000000099fe001eb3a3cc6323d386ac7c7a74cdf2633349"
          ],
          "data": "0x00000000000000000000000000000000000000000000d3c21bcecceda1000000",
          "blockHash": "0x2a05ee7c8246e4a62d6d5a8516f8a0c99506a62f9404c278bbf9996d9e0c8014",
          "blockNumber": "0x171ef8b",
          "transactionHash": "0x68c60131714b906995fb06bc49fdd9503c258168c5a750e19a16ee40e35844ad",
          "transactionIndex": "0x2",
          "logIndex": "0x1",
          "removed": false
        }
      ],
      "logsBloom": "0x00000000000000000000000000000000000000000000000000001000000000000000000000000000000000000000000000000000000000000000000000200000000000000000000000000000000000000000000000000000000000000000000000000000000000200000000000000000000000100000000000000000000000000000000000000000000000000000000000000000000000000000000200000000120000000000000000000000000000000020000000000000000001000000000000000000000000000000000000000000000000020000000000000000004000000010000000000000000000000000000000000000000000000000000000000000",
      "type": "0x2",
      "transactionHash": "0x68c60131714b906995fb06bc49fdd9503c258168c5a750e19a16ee40e35844ad",
      "transactionIndex": "0x2",
      "blockHash": "0x2a05ee7c8246e4a62d6d5a8516f8a0c99506a62f9404c278bbf9996d9e0c8014",
      "blockNumber": "0x171ef8b",
      "gasUsed": "0x7484",
      "effectiveGasPrice": "0xfe",
      "from": "0x3eede3fe85f32d013e368d02db07c0662390eadd",
      "to": "0x0e5cf4661bc46da84efb649ce2f5c0ee3c47c3b2",
      "contractAddress": null,
      "l1BaseFeeScalar": "0x2af8",
      "l1BlobBaseFee": "0x1",
      "l1BlobBaseFeeScalar": "0x109618",
      "l1Fee": "0x875a82fb",
      "l1GasPrice": "0x7b0c76b",
      "l1GasUsed": "0x640"
    },
    {
      "status": "0x1",
      "cumulativeGasUsed": "0x3a908",
      "logs": [
        {
          "address": "0x2b070c96ebf2e6a23f1407c4d843054d9477172b",
          "topics": [
            "0x8c5be1e5ebec7d5bd14f71427d1e84f3dd0314c0f7b2291e5b200ac8c7c3b925",
            "0x0000000000000000000000003eede3fe85f32d013e368d02db07c0662390eadd",
            "0x00000000000000000000000099fe001eb3a3cc6323d386ac7c7a74cdf2633349"
          ],
          "data": "0x00000000000000000000000000000000000000000000d3c21bcecceda1000000",
          "blockHash": "0x2a05ee7c8246e4a62d6d5a8516f8a0c99506a62f9404c278bbf9996d9e0c8014",
          "blockNumber": "0x171ef8b",
          "transactionHash": "0xfed92a46b0b4210048b72a1434113ab7af8d473659ef1ee0a684c8decc151e80",
          "transactionIndex": "0x3",
          "logIndex": "0x2",
          "removed": false
        }
      ],
      "logsBloom": "0x00000000000000000000000000000000000000000000000000001000000000000000000000000000000000000000000000000000000000000000000000200000000000000000000000000000000000000000000000000000000000000000000000000000000000200000000000000000000000000000000000000000000000000000000000000000000000000000000000000000000000000000000000000000020000000000000000000000000000000020000000000000000001000000000000000000000100000000000000000001000000020000000000000000004000000050000000000000000000000000000000000000000000000000000000000000",
      "type": "0x2",
      "transactionHash": "0xfed92a46b0b4210048b72a1434113ab7af8d473659ef1ee0a684c8decc151e80",
      "transactionIndex": "0x3",
      "blockHash": "0x2a05ee7c8246e4a62d6d5a8516f8a0c99506a62f9404c278bbf9996d9e0c8014",
      "blockNumber": "0x171ef8b",
      "gasUsed": "0x6994",
      "effectiveGasPrice": "0xfe",
      "from": "0x3eede3fe85f32d013e368d02db07c0662390eadd",
      "to": "0x2b070c96ebf2e6a23f1407c4d843054d9477172b",
      "contractAddress": null,
      "l1BaseFeeScalar": "0x2af8",
      "l1BlobBaseFee": "0x1",
      "l1BlobBaseFeeScalar": "0x109618",
      "l1Fee": "0x875a82fb",
      "l1GasPrice": "0x7b0c76b",
      "l1GasUsed": "0x640"
    }
  ],
  "libraries": [],
  "pending": [],
  "returns": {},
  "timestamp": 1753801207,
  "chain": 4202,
  "commit": "6182543"
}