{
  "transactions": [
    {
      "hash": "0xc8c428ea5a6c3d693348d031e5ceca494324db955393fb5b97c47866201525b6",
      "transactionType": "CALL",
      "contractName": null,
      "contractAddress": "0x0e5cf4661bc46da84efb649ce2f5c0ee3c47c3b2",
      "function": "approve(address,uint256)",
      "arguments": [
        "0x91EB5Dd37767925c7E764F9DC08ecBbe3Ed56f88",
        "1000000000000000000"
      ],
      "transaction": {
        "from": "0x3eede3fe85f32d013e368d02db07c0662390eadd",
        "to": "0x0e5cf4661bc46da84efb649ce2f5c0ee3c47c3b2",
        "gas": "0xfd33",
        "value": "0x0",
        "input": "0x095ea7b300000000000000000000000091eb5dd37767925c7e764f9dc08ecbbe3ed56f880000000000000000000000000000000000000000000000000de0b6b3a7640000",
        "nonce": "0x50",
        "chainId": "0x106a"
      },
      "additionalContracts": [],
      "isFixedGasLimit": false
    },
    {
      "hash": "0x83a7f60d1c56d092845562a23bad6b510fe92fd753e8fdb51e8407f4aeef259c",
      "transactionType": "CALL",
      "contractName": null,
      "contractAddress": "0x2728dd8b45b788e26d12b13db5a244e5403e7eda",
      "function": "approve(address,uint256)",
      "arguments": [
        "0x91EB5Dd37767925c7E764F9DC08ecBbe3Ed56f88",
        "100000000000000000000"
      ],
      "transaction": {
        "from": "0x3eede3fe85f32d013e368d02db07c0662390eadd",
        "to": "0x2728dd8b45b788e26d12b13db5a244e5403e7eda",
        "gas": "0x108f4",
        "value": "0x0",
        "input": "0x095ea7b300000000000000000000000091eb5dd37767925c7e764f9dc08ecbbe3ed56f880000000000000000000000000000000000000000000000056bc75e2d63100000",
        "nonce": "0x51",
        "chainId": "0x106a"
      },
      "additionalContracts": [],
      "isFixedGasLimit": false
    },
    {
      "hash": "0xc14e85b35c962a4ca213dc2ac46c55b2e67d8bf5d090ed4d5d916b41c3bac586",
      "transactionType": "CALL",
      "contractName": null,
      "contractAddress": "0x91eb5dd37767925c7e764f9dc08ecbbe3ed56f88",
      "function": "addLiquidity(uint256,uint256,uint256,uint256)",
      "arguments": [
        "1000000000000000000",
        "100000000000000000000",
        "0",
        "0"
      ],
      "transaction": {
        "from": "0x3eede3fe85f32d013e368d02db07c0662390eadd",
        "to": "0x91eb5dd37767925c7e764f9dc08ecbbe3ed56f88",
        "gas": "0x2693f",
        "value": "0x0",
        "input": "0xaebf3e410000000000000000000000000000000000000000000000000de0b6b3a76400000000000000000000000000000000000000000000000000056bc75e2d6310000000000000000000000000000000000000000000000000000000000000000000000000000000000000000000000000000000000000000000000000000000000000",
        "nonce": "0x52",
        "chainId": "0x106a"
      },
      "additionalContracts": [],
      "isFixedGasLimit": false
    }
  ],
  "receipts": [
    {
      "status": "0x1",
      "cumulativeGasUsed": "0x16b78",
      "logs": [
        {
          "address": "0x0e5cf4661bc46da84efb649ce2f5c0ee3c47c3b2",
          "topics": [
            "0x8c5be1e5ebec7d5bd14f71427d1e84f3dd0314c0f7b2291e5b200ac8c7c3b925",
            "0x0000000000000000000000003eede3fe85f32d013e368d02db07c0662390eadd",
            "0x00000000000000000000000091eb5dd37767925c7e764f9dc08ecbbe3ed56f88"
          ],
          "data": "0x0000000000000000000000000000000000000000000000000de0b6b3a7640000",
          "blockHash": "0x6160bdba64935b0d91e2306e86a801156b5ee3fa14b4c292d4b765e3c2576150",
          "blockNumber": "0x1744f3d",
          "transactionHash": "0xc8c428ea5a6c3d693348d031e5ceca494324db955393fb5b97c47866201525b6",
          "transactionIndex": "0x1",
          "logIndex": "0x0",
          "removed": false
        }
      ],
      "logsBloom": "0x00000000000000000000000000000000000000000000000000000000000000000000000000000000000000000000000000000000000000000000000000200000000000000000000000001000000000000000000000000400000000000000000000000000000000200000000000000000000000100000000000000000000000000000000000000000000000000000000000000000000000000000000200000000120000000000000010000000000000000020000000000000000001000000000000000000000000000000000000000000000000000000000000000000000000000010000000000000000000000000000000000000000000000000000000000000",
      "type": "0x2",
      "transactionHash": "0xc8c428ea5a6c3d693348d031e5ceca494324db955393fb5b97c47866201525b6",
      "transactionIndex": "0x1",
      "blockHash": "0x6160bdba64935b0d91e2306e86a801156b5ee3fa14b4c292d4b765e3c2576150",
      "blockNumber": "0x1744f3d",
      "gasUsed": "0xb750",
      "effectiveGasPrice": "0xfe",
      "from": "0x3eede3fe85f32d013e368d02db07c0662390eadd",
      "to": "0x0e5cf4661bc46da84efb649ce2f5c0ee3c47c3b2",
      "contractAddress": null,
      "l1BaseFeeScalar": "0x2af8",
      "l1BlobBaseFee": "0x1",
      "l1BlobBaseFeeScalar": "0x109618",
      "l1Fee": "0xe1787",
      "l1GasPrice": "0xccf3",
      "l1GasUsed": "0x640"
    },
    {
      "status": "0x1",
      "cumulativeGasUsed": "0x220a3",
      "logs": [
        {
          "address": "0x2728dd8b45b788e26d12b13db5a244e5403e7eda",
          "topics": [
            "0x8c5be1e5ebec7d5bd14f71427d1e84f3dd0314c0f7b2291e5b200ac8c7c3b925",
            "0x0000000000000000000000003eede3fe85f32d013e368d02db07c0662390eadd",
            "0x00000000000000000000000091eb5dd37767925c7e764f9dc08ecbbe3ed56f88"
          ],
          "data": "0x0000000000000000000000000000000000000000000000056bc75e2d63100000",
          "blockHash": "0x6160bdba64935b0d91e2306e86a801156b5ee3fa14b4c292d4b765e3c2576150",
          "blockNumber": "0x1744f3d",
          "transactionHash": "0x83a7f60d1c56d092845562a23bad6b510fe92fd753e8fdb51e8407f4aeef259c",
          "transactionIndex": "0x2",
          "logIndex": "0x1",
          "removed": false
        }
      ],
      "logsBloom": "0x00000000000000000000008000000000000000000000000000000000000000000000000000000000000000000000000000000000000000000000002000200000000000000000000000001000000000000000000000000400000000000000000000000000000000200000000000000000000000000000000000000000000000000000000000000000000000000000000000000000000000000000000000000000020000000000000010000000000000000020000000000000000001000000000000000000000000000000000000000000000000000000000000000000000000000010000000000000080000000000000000000000000000000000000000000000",
      "type": "0x2",
      "transactionHash": "0x83a7f60d1c56d092845562a23bad6b510fe92fd753e8fdb51e8407f4aeef259c",
      "transactionIndex": "0x2",
      "blockHash": "0x6160bdba64935b0d91e2306e86a801156b5ee3fa14b4c292d4b765e3c2576150",
      "blockNumber": "0x1744f3d",
      "gasUsed": "0xb52b",
      "effectiveGasPrice": "0xfe",
      "from": "0x3eede3fe85f32d013e368d02db07c0662390eadd",
      "to": "0x2728dd8b45b788e26d12b13db5a244e5403e7eda",
      "contractAddress": null,
      "l1BaseFeeScalar": "0x2af8",
      "l1BlobBaseFee": "0x1",
      "l1BlobBaseFeeScalar": "0x109618",
      "l1Fee": "0xe1787",
      "l1GasPrice": "0xccf3",
      "l1GasUsed": "0x640"
    },
    {
      "status": "0x1",
      "cumulativeGasUsed": "0x3df83",
      "logs": [
        {
          "address": "0x0e5cf4661bc46da84efb649ce2f5c0ee3c47c3b2",
          "topics": [
            "0xddf252ad1be2c89b69c2b068fc378daa952ba7f163c4a11628f55a4df523b3ef",
            "0x0000000000000000000000003eede3fe85f32d013e368d02db07c0662390eadd",
            "0x00000000000000000000000091eb5dd37767925c7e764f9dc08ecbbe3ed56f88"
          ],
          "data": "0x0000000000000000000000000000000000000000000000000de0b6b3a7640000",
          "blockHash": "0x6160bdba64935b0d91e2306e86a801156b5ee3fa14b4c292d4b765e3c2576150",
          "blockNumber": "0x1744f3d",
          "transactionHash": "0xc14e85b35c962a4ca213dc2ac46c55b2e67d8bf5d090ed4d5d916b41c3bac586",
          "transactionIndex": "0x3",
          "logIndex": "0x2",
          "removed": false
        },
        {
          "address": "0x2728dd8b45b788e26d12b13db5a244e5403e7eda",
          "topics": [
            "0xddf252ad1be2c89b69c2b068fc378daa952ba7f163c4a11628f55a4df523b3ef",
            "0x0000000000000000000000003eede3fe85f32d013e368d02db07c0662390eadd",
            "0x00000000000000000000000091eb5dd37767925c7e764f9dc08ecbbe3ed56f88"
          ],
          "data": "0x000000000000000000000000000000000000000000000000000000000098e4fa",
          "blockHash": "0x6160bdba64935b0d91e2306e86a801156b5ee3fa14b4c292d4b765e3c2576150",
          "blockNumber": "0x1744f3d",
          "transactionHash": "0xc14e85b35c962a4ca213dc2ac46c55b2e67d8bf5d090ed4d5d916b41c3bac586",
          "transactionIndex": "0x3",
          "logIndex": "0x3",
          "removed": false
        },
        {
          "address": "0x91eb5dd37767925c7e764f9dc08ecbbe3ed56f88",
          "topics": [
            "0xddf252ad1be2c89b69c2b068fc378daa952ba7f163c4a11628f55a4df523b3ef",
            "0x0000000000000000000000000000000000000000000000000000000000000000",
            "0x0000000000000000000000003eede3fe85f32d013e368d02db07c0662390eadd"
          ],
          "data": "0x00000000000000000000000000000000000000000000000000000002553e7090",
          "blockHash": "0x6160bdba64935b0d91e2306e86a801156b5ee3fa14b4c292d4b765e3c2576150",
          "blockNumber": "0x1744f3d",
          "transactionHash": "0xc14e85b35c962a4ca213dc2ac46c55b2e67d8bf5d090ed4d5d916b41c3bac586",
          "transactionIndex": "0x3",
          "logIndex": "0x4",
          "removed": false
        },
        {
          "address": "0x91eb5dd37767925c7e764f9dc08ecbbe3ed56f88",
          "topics": [
            "0x64b83944e79c3ce8d4c297411de637c3e102d064677aac0c163976ebdcd6f50e",
            "0x0000000000000000000000003eede3fe85f32d013e368d02db07c0662390eadd"
          ],
          "data": "0x0000000000000000000000000000000000000000000000000de0b6b3a7640000000000000000000000000000000000000000000000000000000000000098e4fa00000000000000000000000000000000000000000000000000000002553e7090",
          "blockHash": "0x6160bdba64935b0d91e2306e86a801156b5ee3fa14b4c292d4b765e3c2576150",
          "blockNumber": "0x1744f3d",
          "transactionHash": "0xc14e85b35c962a4ca213dc2ac46c55b2e67d8bf5d090ed4d5d916b41c3bac586",
          "transactionIndex": "0x3",
          "logIndex": "0x5",
          "removed": false
        }
      ],
      "logsBloom": "0x00000400000000000000008000000000000000000000000000000000000000000000000000000000000000020000000000000000000000000000002000000000000001000000000000001008800000000000000000000400000000000000000000000000020000200000000000000800000000100000000000000010000000000000000000000000000000020000000000000000000000000000000200000000100000000000000010000000000000000020000000000000000001000000000000000002000000000000000000000000000000000000000000000000020020000000000000000000080000000000000000000000000000000000000000000000",
      "type": "0x2",
      "transactionHash": "0xc14e85b35c962a4ca213dc2ac46c55b2e67d8bf5d090ed4d5d916b41c3bac586",
      "transactionIndex": "0x3",
      "blockHash": "0x6160bdba64935b0d91e2306e86a801156b5ee3fa14b4c292d4b765e3c2576150",
      "blockNumber": "0x1744f3d",
      "gasUsed": "0x1bee0",
      "effectiveGasPrice": "0xfe",
      "from": "0x3eede3fe85f32d013e368d02db07c0662390eadd",
      "to": "0x91eb5dd37767925c7e764f9dc08ecbbe3ed56f88",
      "contractAddress": null,
      "l1BaseFeeScalar": "0x2af8",
      "l1BlobBaseFee": "0x1",
      "l1BlobBaseFeeScalar": "0x109618",
      "l1Fee": "0xe1787",
      "l1GasPrice": "0xccf3",
      "l1GasUsed": "0x640"
    }
  ],
  "libraries": [],
  "pending": [],
  "returns": {},
  "timestamp": 1754112345,
  "chain": 4202,
  "commit": "6182543"
}