{
  "transactions": [
    {
      "hash": "0xcc16ecca645e3d83dd53cc504087e4c792733298313de2e5e815d563549818ee",
      "transactionType": "CALL",
      "contractName": null,
      "contractAddress": "0x2cfe3eaa35ec3dc47062b6f626421f0cfcc5ab74",
      "function": "addLiquidity(uint256,uint256)",
      "arguments": [
        "1000000000000000000",
        "1000000000000000000"
      ],
      "transaction": {
        "from": "0x3eede3fe85f32d013e368d02db07c0662390eadd",
        "to": "0x2cfe3eaa35ec3dc47062b6f626421f0cfcc5ab74",
        "gas": "0x1c535",
        "value": "0x0",
        "input": "0x9cd441da0000000000000000000000000000000000000000000000000de0b6b3a76400000000000000000000000000000000000000000000000000000de0b6b3a7640000",
        "nonce": "0x32",
        "chainId": "0x106a"
      },
      "additionalContracts": [],
      "isFixedGasLimit": false
    }
  ],
  "receipts": [
    {
      "status": "0x1",
      "cumulativeGasUsed": "0x21d22",
      "logs": [
        {
          "address": "0x9a2676cb2e27a4dfc7c6085a521d6a0d82648652",
          "topics": [
            "0xddf252ad1be2c89b69c2b068fc378daa952ba7f163c4a11628f55a4df523b3ef",
            "0x0000000000000000000000003eede3fe85f32d013e368d02db07c0662390eadd",
            "0x0000000000000000000000002cfe3eaa35ec3dc47062b6f626421f0cfcc5ab74"
          ],
          "data": "0x0000000000000000000000000000000000000000000000000de0b6b3a7640000",
          "blockHash": "0x5e46b4fc2c77245ffe6bd9c2b97327a7fac2def73ff6ad0409279f08dac99d5b",
          "blockNumber": "0x171ffd4",
          "transactionHash": "0xcc16ecca645e3d83dd53cc504087e4c792733298313de2e5e815d563549818ee",
          "transactionIndex": "0x1",
          "logIndex": "0x0",
          "removed": false
        },
        {
          "address": "0x3f51153d99b3f57fd9d46b685278ecfdd6fc5245",
          "topics": [
            "0xddf252ad1be2c89b69c2b068fc378daa952ba7f163c4a11628f55a4df523b3ef",
            "0x0000000000000000000000003eede3fe85f32d013e368d02db07c0662390eadd",
            "0x0000000000000000000000002cfe3eaa35ec3dc47062b6f626421f0cfcc5ab74"
          ],
          "data": "0x0000000000000000000000000000000000000000000000000de0b6b3a7640000",
          "blockHash": "0x5e46b4fc2c77245ffe6bd9c2b97327a7fac2def73ff6ad0409279f08dac99d5b",
          "blockNumber": "0x171ffd4",
          "transactionHash": "0xcc16ecca645e3d83dd53cc504087e4c792733298313de2e5e815d563549818ee",
          "transactionIndex": "0x1",
          "logIndex": "0x1",
          "removed": false
        }
      ],
      "logsBloom": "0x00000000000000000000000004000000002000100000000000000000000000000000000000000000000000020000000000000000000000000000000000000000000000000000000000000008000000000000000000400000000000000000000010000000400000200000000000000000000000000000000800000010000000000000000000000000000000000000000000000000000000000000000000000000000000000000000000000000000000000020000000000000000001000000000000000002000000000000000000000000000000000080000000000000000000000000000000000000000000000000000000000000000000000000000000000000",
      "type": "0x2",
      "transactionHash": "0xcc16ecca645e3d83dd53cc504087e4c792733298313de2e5e815d563549818ee",
      "transactionIndex": "0x1",
      "blockHash": "0x5e46b4fc2c77245ffe6bd9c2b97327a7fac2def73ff6ad0409279f08dac99d5b",
      "blockNumber": "0x171ffd4",
      "gasUsed": "0x1481e",
      "effectiveGasPrice": "0xfe",
      "from": "0x3eede3fe85f32d013e368d02db07c0662390eadd",
      "to": "0x2cfe3eaa35ec3dc47062b6f626421f0cfcc5ab74",
      "contractAddress": null,
      "l1BaseFeeScalar": "0x2af8",
      "l1BlobBaseFee": "0x1",
      "l1BlobBaseFeeScalar": "0x109618",
      "l1Fee": "0x4dcc0d6e",
      "l1GasPrice": "0x46b9803",
      "l1GasUsed": "0x640"
    }
  ],
  "libraries": [],
  "pending": [],
  "returns": {},
  "timestamp": 1753809544,
  "chain": 4202,
  "commit": "6182543"
}