{
  "transactions": [
    {
      "hash": "0x39bde8c83ae5c7bd1081bb66feb1327982bd456e1d9f62ba9b33bf27a602ec24",
      "transactionType": "CALL",
      "contractName": null,
      "contractAddress": "0x99fe001eb3a3cc6323d386ac7c7a74cdf2633349",
      "function": "addLiquidity(uint256,uint256)",
      "arguments": [
        "1000000000000000000",
        "1000000000000000000"
      ],
      "transaction": {
        "from": "0x3eede3fe85f32d013e368d02db07c0662390eadd",
        "to": "0x99fe001eb3a3cc6323d386ac7c7a74cdf2633349",
        "gas": "0x1b62a",
        "value": "0x0",
        "input": "0x9cd441da0000000000000000000000000000000000000000000000000de0b6b3a76400000000000000000000000000000000000000000000000000000de0b6b3a7640000",
        "nonce": "0x14",
        "chainId": "0x106a"
      },
      "additionalContracts": [],
      "isFixedGasLimit": false
    }
  ],
  "receipts": [
    {
      "status": "0x1",
      "cumulativeGasUsed": "0x1dfce",
      "logs": [
        {
          "address": "0x0e5cf4661bc46da84efb649ce2f5c0ee3c47c3b2",
          "topics": [
            "0xddf252ad1be2c89b69c2b068fc378daa952ba7f163c4a11628f55a4df523b3ef",
            "0x0000000000000000000000003eede3fe85f32d013e368d02db07c0662390eadd",
            "0x00000000000000000000000099fe001eb3a3cc6323d386ac7c7a74cdf2633349"
          ],
          "data": "0x0000000000000000000000000000000000000000000000000de0b6b3a7640000",
          "blockHash": "0x7f75c64573ec2a0844c2264ecc69c57b7c21324806f6c598aba1e022d3b10325",
          "blockNumber": "0x171d7f4",
          "transactionHash": "0x39bde8c83ae5c7bd1081bb66feb1327982bd456e1d9f62ba9b33bf27a602ec24",
          "transactionIndex": "0x1",
          "logIndex": "0x0",
          "removed": false
        },
        {
          "address": "0x0e5cf4661bc46da84efb649ce2f5c0ee3c47c3b2",
          "topics": [
            "0xddf252ad1be2c89b69c2b068fc378daa952ba7f163c4a11628f55a4df523b3ef",
            "0x0000000000000000000000003eede3fe85f32d013e368d02db07c0662390eadd",
            "0x00000000000000000000000099fe001eb3a3cc6323d386ac7c7a74cdf2633349"
          ],
          "data": "0x0000000000000000000000000000000000000000000000000de0b6b3a7640000",
          "blockHash": "0x7f75c64573ec2a0844c2264ecc69c57b7c21324806f6c598aba1e022d3b10325",
          "blockNumber": "0x171d7f4",
          "transactionHash": "0x39bde8c83ae5c7bd1081bb66feb1327982bd456e1d9f62ba9b33bf27a602ec24",
          "transactionIndex": "0x1",
          "logIndex": "0x1",
          "removed": false
        }
      ],
      "logsBloom": "0x00000000000000000000000000000000000000000000000000001000000000000000000000000000000000000000000000000000000000000000000000000000000000000000000000000008000000000000000000000000000000000000000000000000000000200000000000000000000000100000000000000010000000000000000000000000000000000000000000000000000000000000000200000000100000000000000000000000000000000020000000000000000001000000000000000002000000000000000000000000000000020000000000000000004000000000000000000000000000000000000000000000000000000000000000000000",
      "type": "0x2",
      "transactionHash": "0x39bde8c83ae5c7bd1081bb66feb1327982bd456e1d9f62ba9b33bf27a602ec24",
      "transactionIndex": "0x1",
      "blockHash": "0x7f75c64573ec2a0844c2264ecc69c57b7c21324806f6c598aba1e022d3b10325",
      "blockNumber": "0x171d7f4",
      "gasUsed": "0x12b9a",
      "effectiveGasPrice": "0xfe",
      "from": "0x3eede3fe85f32d013e368d02db07c0662390eadd",
      "to": "0x99fe001eb3a3cc6323d386ac7c7a74cdf2633349",
      "contractAddress": null,
      "l1BaseFeeScalar": "0x2af8",
      "l1BlobBaseFee": "0x3",
      "l1BlobBaseFeeScalar": "0x109618",
      "l1Fee": "0xf5ae64",
      "l1GasPrice": "0xdf579",
      "l1GasUsed": "0x640"
    }
  ],
  "libraries": [],
  "pending": [],
  "returns": {},
  "timestamp": 1753789128,
  "chain": 4202,
  "commit": "6182543"
}