{
  "transactions": [
    {
      "hash": "0x037507d81e328015b5e00df80e74f1706433ec00f01857344fdd9290259419f2",
      "transactionType": "CALL",
      "contractName": null,
      "contractAddress": "0x99fe001eb3a3cc6323d386ac7c7a74cdf2633349",
      "function": "addLiquidity(uint256,uint256)",
      "arguments": [
        "1000000000000000000",
        "1000000000000000000"
      ],
      "transaction": {
        "from": "0x3eede3fe85f32d013e368d02db07c0662390eadd",
        "to": "0x99fe001eb3a3cc6323d386ac7c7a74cdf2633349",
        "gas": "0x368d0",
        "value": "0x0",
        "input": "0x9cd441da0000000000000000000000000000000000000000000000000de0b6b3a76400000000000000000000000000000000000000000000000000000de0b6b3a7640000",
        "nonce": "0x13",
        "chainId": "0x106a"
      },
      "additionalContracts": [],
      "isFixedGasLimit": false
    }
  ],
  "receipts": [
    {
      "status": "0x1",
      "cumulativeGasUsed": "0x32c0f",
      "logs": [
        {
          "address": "0x0e5cf4661bc46da84efb649ce2f5c0ee3c47c3b2",
          "topics": [
            "0xddf252ad1be2c89b69c2b068fc378daa952ba7f163c4a11628f55a4df523b3ef",
            "0x0000000000000000000000003eede3fe85f32d013e368d02db07c0662390eadd",
            "0x00000000000000000000000099fe001eb3a3cc6323d386ac7c7a74cdf2633349"
          ],
          "data": "0x0000000000000000000000000000000000000000000000000de0b6b3a7640000",
          "blockHash": "0x4d5168ecf987f09ba1fadeb164d1c9ba8bfff4288dc7f686826195f0202fc1da",
          "blockNumber": "0x171d76b",
          "transactionHash": "0x037507d81e328015b5e00df80e74f1706433ec00f01857344fdd9290259419f2",
          "transactionIndex": "0x1",
          "logIndex": "0x0",
          "removed": false
        },
        {
          "address": "0x0e5cf4661bc46da84efb649ce2f5c0ee3c47c3b2",
          "topics": [
            "0xddf252ad1be2c89b69c2b068fc378daa952ba7f163c4a11628f55a4df523b3ef",
            "0x0000000000000000000000003eede3fe85f32d013e368d02db07c0662390eadd",
            "0x00000000000000000000000099fe001eb3a3cc6323d386ac7c7a74cdf2633349"
          ],
          "data": "0x0000000000000000000000000000000000000000000000000de0b6b3a7640000",
          "blockHash": "0x4d5168ecf987f09ba1fadeb164d1c9ba8bfff4288dc7f686826195f0202fc1da",
          "blockNumber": "0x171d76b",
          "transactionHash": "0x037507d81e328015b5e00df80e74f1706433ec00f01857344fdd9290259419f2",
          "transactionIndex": "0x1",
          "logIndex": "0x1",
          "removed": false
        }
      ],
      "logsBloom": "0x00000000000000000000000000000000000000000000000000001000000000000000000000000000000000000000000000000000000000000000000000000000000000000000000000000008000000000000000000000000000000000000000000000000000000200000000000000000000000100000000000000010000000000000000000000000000000000000000000000000000000000000000200000000100000000000000000000000000000000020000000000000000001000000000000000002000000000000000000000000000000020000000000000000004000000000000000000000000000000000000000000000000000000000000000000000",
      "type": "0x2",
      "transactionHash": "0x037507d81e328015b5e00df80e74f1706433ec00f01857344fdd9290259419f2",
      "transactionIndex": "0x1",
      "blockHash": "0x4d5168ecf987f09ba1fadeb164d1c9ba8bfff4288dc7f686826195f0202fc1da",
      "blockNumber": "0x171d76b",
      "gasUsed": "0x277e7",
      "effectiveGasPrice": "0xfe",
      "from": "0x3eede3fe85f32d013e368d02db07c0662390eadd",
      "to": "0x99fe001eb3a3cc6323d386ac7c7a74cdf2633349",
      "contractAddress": null,
      "l1BaseFeeScalar": "0x2af8",
      "l1BlobBaseFee": "0x3",
      "l1BlobBaseFeeScalar": "0x109618",
      "l1Fee": "0x1d635b9",
      "l1GasPrice": "0x1ab758",
      "l1GasUsed": "0x640"
    }
  ],
  "libraries": [],
  "pending": [],
  "returns": {},
  "timestamp": 1753788854,
  "chain": 4202,
  "commit": "a170f76"
}